{
  "contractName": "NftMarket",
  "abi": [
    {
      "inputs": [],
      "stateMutability": "nonpayable",
      "type": "constructor"
    },
    {
      "anonymous": false,
      "inputs": [
        {
          "indexed": true,
          "internalType": "address",
          "name": "owner",
          "type": "address"
        },
        {
          "indexed": true,
          "internalType": "address",
          "name": "approved",
          "type": "address"
        },
        {
          "indexed": true,
          "internalType": "uint256",
          "name": "tokenId",
          "type": "uint256"
        }
      ],
      "name": "Approval",
      "type": "event"
    },
    {
      "anonymous": false,
      "inputs": [
        {
          "indexed": true,
          "internalType": "address",
          "name": "owner",
          "type": "address"
        },
        {
          "indexed": true,
          "internalType": "address",
          "name": "operator",
          "type": "address"
        },
        {
          "indexed": false,
          "internalType": "bool",
          "name": "approved",
          "type": "bool"
        }
      ],
      "name": "ApprovalForAll",
      "type": "event"
    },
    {
      "anonymous": false,
      "inputs": [
        {
          "indexed": false,
          "internalType": "uint256",
          "name": "tokenId",
          "type": "uint256"
        },
        {
          "indexed": false,
          "internalType": "uint256",
          "name": "price",
          "type": "uint256"
        },
        {
          "indexed": false,
          "internalType": "address",
          "name": "creator",
          "type": "address"
        },
        {
          "indexed": false,
          "internalType": "bool",
          "name": "isListed",
          "type": "bool"
        }
      ],
      "name": "NftItemCreated",
      "type": "event"
    },
    {
      "anonymous": false,
      "inputs": [
        {
          "indexed": true,
          "internalType": "address",
          "name": "previousOwner",
          "type": "address"
        },
        {
          "indexed": true,
          "internalType": "address",
          "name": "newOwner",
          "type": "address"
        }
      ],
      "name": "OwnershipTransferred",
      "type": "event"
    },
    {
      "anonymous": false,
      "inputs": [
        {
          "indexed": true,
          "internalType": "address",
          "name": "from",
          "type": "address"
        },
        {
          "indexed": true,
          "internalType": "address",
          "name": "to",
          "type": "address"
        },
        {
          "indexed": true,
          "internalType": "uint256",
          "name": "tokenId",
          "type": "uint256"
        }
      ],
      "name": "Transfer",
      "type": "event"
    },
    {
      "inputs": [
        {
          "internalType": "address",
          "name": "to",
          "type": "address"
        },
        {
          "internalType": "uint256",
          "name": "tokenId",
          "type": "uint256"
        }
      ],
      "name": "approve",
      "outputs": [],
      "stateMutability": "nonpayable",
      "type": "function"
    },
    {
      "inputs": [
        {
          "internalType": "address",
          "name": "owner",
          "type": "address"
        }
      ],
      "name": "balanceOf",
      "outputs": [
        {
          "internalType": "uint256",
          "name": "",
          "type": "uint256"
        }
      ],
      "stateMutability": "view",
      "type": "function",
      "constant": true
    },
    {
      "inputs": [
        {
          "internalType": "uint256",
          "name": "tokenId",
          "type": "uint256"
        }
      ],
      "name": "getApproved",
      "outputs": [
        {
          "internalType": "address",
          "name": "",
          "type": "address"
        }
      ],
      "stateMutability": "view",
      "type": "function",
      "constant": true
    },
    {
      "inputs": [
        {
          "internalType": "address",
          "name": "owner",
          "type": "address"
        },
        {
          "internalType": "address",
          "name": "operator",
          "type": "address"
        }
      ],
      "name": "isApprovedForAll",
      "outputs": [
        {
          "internalType": "bool",
          "name": "",
          "type": "bool"
        }
      ],
      "stateMutability": "view",
      "type": "function",
      "constant": true
    },
    {
      "inputs": [],
      "name": "listingPrice",
      "outputs": [
        {
          "internalType": "uint256",
          "name": "",
          "type": "uint256"
        }
      ],
      "stateMutability": "view",
      "type": "function",
      "constant": true
    },
    {
      "inputs": [],
      "name": "name",
      "outputs": [
        {
          "internalType": "string",
          "name": "",
          "type": "string"
        }
      ],
      "stateMutability": "view",
      "type": "function",
      "constant": true
    },
    {
      "inputs": [],
      "name": "owner",
      "outputs": [
        {
          "internalType": "address",
          "name": "",
          "type": "address"
        }
      ],
      "stateMutability": "view",
      "type": "function",
      "constant": true
    },
    {
      "inputs": [
        {
          "internalType": "uint256",
          "name": "tokenId",
          "type": "uint256"
        }
      ],
      "name": "ownerOf",
      "outputs": [
        {
          "internalType": "address",
          "name": "",
          "type": "address"
        }
      ],
      "stateMutability": "view",
      "type": "function",
      "constant": true
    },
    {
      "inputs": [],
      "name": "renounceOwnership",
      "outputs": [],
      "stateMutability": "nonpayable",
      "type": "function"
    },
    {
      "inputs": [
        {
          "internalType": "address",
          "name": "from",
          "type": "address"
        },
        {
          "internalType": "address",
          "name": "to",
          "type": "address"
        },
        {
          "internalType": "uint256",
          "name": "tokenId",
          "type": "uint256"
        }
      ],
      "name": "safeTransferFrom",
      "outputs": [],
      "stateMutability": "nonpayable",
      "type": "function"
    },
    {
      "inputs": [
        {
          "internalType": "address",
          "name": "from",
          "type": "address"
        },
        {
          "internalType": "address",
          "name": "to",
          "type": "address"
        },
        {
          "internalType": "uint256",
          "name": "tokenId",
          "type": "uint256"
        },
        {
          "internalType": "bytes",
          "name": "_data",
          "type": "bytes"
        }
      ],
      "name": "safeTransferFrom",
      "outputs": [],
      "stateMutability": "nonpayable",
      "type": "function"
    },
    {
      "inputs": [
        {
          "internalType": "address",
          "name": "operator",
          "type": "address"
        },
        {
          "internalType": "bool",
          "name": "approved",
          "type": "bool"
        }
      ],
      "name": "setApprovalForAll",
      "outputs": [],
      "stateMutability": "nonpayable",
      "type": "function"
    },
    {
      "inputs": [
        {
          "internalType": "bytes4",
          "name": "interfaceId",
          "type": "bytes4"
        }
      ],
      "name": "supportsInterface",
      "outputs": [
        {
          "internalType": "bool",
          "name": "",
          "type": "bool"
        }
      ],
      "stateMutability": "view",
      "type": "function",
      "constant": true
    },
    {
      "inputs": [],
      "name": "symbol",
      "outputs": [
        {
          "internalType": "string",
          "name": "",
          "type": "string"
        }
      ],
      "stateMutability": "view",
      "type": "function",
      "constant": true
    },
    {
      "inputs": [
        {
          "internalType": "uint256",
          "name": "tokenId",
          "type": "uint256"
        }
      ],
      "name": "tokenURI",
      "outputs": [
        {
          "internalType": "string",
          "name": "",
          "type": "string"
        }
      ],
      "stateMutability": "view",
      "type": "function",
      "constant": true
    },
    {
      "inputs": [
        {
          "internalType": "address",
          "name": "from",
          "type": "address"
        },
        {
          "internalType": "address",
          "name": "to",
          "type": "address"
        },
        {
          "internalType": "uint256",
          "name": "tokenId",
          "type": "uint256"
        }
      ],
      "name": "transferFrom",
      "outputs": [],
      "stateMutability": "nonpayable",
      "type": "function"
    },
    {
      "inputs": [
        {
          "internalType": "address",
          "name": "newOwner",
          "type": "address"
        }
      ],
      "name": "transferOwnership",
      "outputs": [],
      "stateMutability": "nonpayable",
      "type": "function"
    },
    {
      "inputs": [
        {
          "internalType": "uint256",
          "name": "newPrice",
          "type": "uint256"
        }
      ],
      "name": "setListingPrice",
      "outputs": [],
      "stateMutability": "nonpayable",
      "type": "function"
    },
    {
      "inputs": [
        {
          "internalType": "uint256",
          "name": "tokenId",
          "type": "uint256"
        }
      ],
      "name": "getNftItem",
      "outputs": [
        {
          "components": [
            {
              "internalType": "uint256",
              "name": "tokenId",
              "type": "uint256"
            },
            {
              "internalType": "uint256",
              "name": "price",
              "type": "uint256"
            },
            {
              "internalType": "address",
              "name": "creator",
              "type": "address"
            },
            {
              "internalType": "bool",
              "name": "isListed",
              "type": "bool"
            }
          ],
          "internalType": "struct NftMarket.NftItem",
          "name": "",
          "type": "tuple"
        }
      ],
      "stateMutability": "view",
      "type": "function",
      "constant": true
    },
    {
      "inputs": [],
      "name": "listedItemsCount",
      "outputs": [
        {
          "internalType": "uint256",
          "name": "",
          "type": "uint256"
        }
      ],
      "stateMutability": "view",
      "type": "function",
      "constant": true
    },
    {
      "inputs": [
        {
          "internalType": "string",
          "name": "tokenURI",
          "type": "string"
        }
      ],
      "name": "tokenURIExists",
      "outputs": [
        {
          "internalType": "bool",
          "name": "",
          "type": "bool"
        }
      ],
      "stateMutability": "view",
      "type": "function",
      "constant": true
    },
    {
      "inputs": [],
      "name": "totalSupply",
      "outputs": [
        {
          "internalType": "uint256",
          "name": "",
          "type": "uint256"
        }
      ],
      "stateMutability": "view",
      "type": "function",
      "constant": true
    },
    {
      "inputs": [
        {
          "internalType": "uint256",
          "name": "index",
          "type": "uint256"
        }
      ],
      "name": "tokenByIndex",
      "outputs": [
        {
          "internalType": "uint256",
          "name": "",
          "type": "uint256"
        }
      ],
      "stateMutability": "view",
      "type": "function",
      "constant": true
    },
    {
      "inputs": [
        {
          "internalType": "address",
          "name": "owner",
          "type": "address"
        },
        {
          "internalType": "uint256",
          "name": "index",
          "type": "uint256"
        }
      ],
      "name": "tokenOfOwnerByIndex",
      "outputs": [
        {
          "internalType": "uint256",
          "name": "",
          "type": "uint256"
        }
      ],
      "stateMutability": "view",
      "type": "function",
      "constant": true
    },
    {
      "inputs": [],
      "name": "getAllNftsOnSale",
      "outputs": [
        {
          "components": [
            {
              "internalType": "uint256",
              "name": "tokenId",
              "type": "uint256"
            },
            {
              "internalType": "uint256",
              "name": "price",
              "type": "uint256"
            },
            {
              "internalType": "address",
              "name": "creator",
              "type": "address"
            },
            {
              "internalType": "bool",
              "name": "isListed",
              "type": "bool"
            }
          ],
          "internalType": "struct NftMarket.NftItem[]",
          "name": "",
          "type": "tuple[]"
        }
      ],
      "stateMutability": "view",
      "type": "function",
      "constant": true
    },
    {
      "inputs": [],
      "name": "getOwnedNfts",
      "outputs": [
        {
          "components": [
            {
              "internalType": "uint256",
              "name": "tokenId",
              "type": "uint256"
            },
            {
              "internalType": "uint256",
              "name": "price",
              "type": "uint256"
            },
            {
              "internalType": "address",
              "name": "creator",
              "type": "address"
            },
            {
              "internalType": "bool",
              "name": "isListed",
              "type": "bool"
            }
          ],
          "internalType": "struct NftMarket.NftItem[]",
          "name": "",
          "type": "tuple[]"
        }
      ],
      "stateMutability": "view",
      "type": "function",
      "constant": true
    },
    {
      "inputs": [
        {
          "internalType": "uint256",
          "name": "tokenId",
          "type": "uint256"
        }
      ],
      "name": "burnToken",
      "outputs": [],
      "stateMutability": "nonpayable",
      "type": "function"
    },
    {
      "inputs": [
        {
          "internalType": "string",
          "name": "tokenURI",
          "type": "string"
        },
        {
          "internalType": "uint256",
          "name": "price",
          "type": "uint256"
        }
      ],
      "name": "mintToken",
      "outputs": [
        {
          "internalType": "uint256",
          "name": "",
          "type": "uint256"
        }
      ],
      "stateMutability": "payable",
      "type": "function",
      "payable": true
    },
    {
      "inputs": [
        {
          "internalType": "uint256",
          "name": "tokenId",
          "type": "uint256"
        },
        {
          "internalType": "uint256",
          "name": "newPrice",
          "type": "uint256"
        }
      ],
      "name": "placeNftOnSale",
      "outputs": [],
      "stateMutability": "payable",
      "type": "function",
      "payable": true
    },
    {
      "inputs": [
        {
          "internalType": "uint256",
          "name": "tokenId",
          "type": "uint256"
        }
      ],
      "name": "buyNft",
      "outputs": [],
      "stateMutability": "payable",
      "type": "function",
      "payable": true
    }
  ],
  "bytecode": "0x60806040526658d15e176280006008553480156200001c57600080fd5b506040518060400160405280600b81526020017f4461726b4e6f76614e46540000000000000000000000000000000000000000008152506040518060400160405280600581526020017f444e4e46540000000000000000000000000000000000000000000000000000008152508160009080519060200190620000a1929190620001b1565b508060019080519060200190620000ba929190620001b1565b505050620000dd620000d1620000e360201b60201c565b620000eb60201b60201c565b620002c5565b600033905090565b6000600760009054906101000a900473ffffffffffffffffffffffffffffffffffffffff16905081600760006101000a81548173ffffffffffffffffffffffffffffffffffffffff021916908373ffffffffffffffffffffffffffffffffffffffff1602179055508173ffffffffffffffffffffffffffffffffffffffff168173ffffffffffffffffffffffffffffffffffffffff167f8be0079c531659141344cd1fd0a4f28419497f9722a3daafe3b4186f6b6457e060405160405180910390a35050565b828054620001bf9062000290565b90600052602060002090601f016020900481019282620001e357600085556200022f565b82601f10620001fe57805160ff19168380011785556200022f565b828001600101855582156200022f579182015b828111156200022e57825182559160200191906001019062000211565b5b5090506200023e919062000242565b5090565b5b808211156200025d57600081600090555060010162000243565b5090565b7f4e487b7100000000000000000000000000000000000000000000000000000000600052602260045260246000fd5b60006002820490506001821680620002a957607f821691505b602082108103620002bf57620002be62000261565b5b50919050565b614c1d80620002d56000396000f3fe6080604052600436106101cd5760003560e01c806370a08231116100f7578063a22cb46511610095578063c87b56dd11610064578063c87b56dd14610685578063ccb4918d146106c2578063e985e9c5146106ed578063f2fde38b1461072a576101cd565b8063a22cb465146105d8578063b88d4fde14610601578063c046372c1461062a578063c78f19f91461065a576101cd565b80637b47ec1a116100d15780637b47ec1a146105305780637c726b69146105595780638da5cb5b1461058257806395d89b41146105ad576101cd565b806370a08231146104b157806370cbcb43146104ee578063715018a614610519576101cd565b8063243adbdd1161016f57806343d32ae71161013e57806343d32ae7146103bd5780634f6ccce7146103fa5780636352211e146104375780636f1a0af514610474576101cd565b8063243adbdd146103105780632f745c591461032c57806336b536be1461036957806342842e0e14610394576101cd565b8063095ea7b3116101ab578063095ea7b31461027757806318160ddd146102a057806321f422e5146102cb57806323b872dd146102e7576101cd565b806301ffc9a7146101d257806306fdde031461020f578063081812fc1461023a575b600080fd5b3480156101de57600080fd5b506101f960048036038101906101f491906131ba565b610753565b6040516102069190613202565b60405180910390f35b34801561021b57600080fd5b50610224610835565b60405161023191906132b6565b60405180910390f35b34801561024657600080fd5b50610261600480360381019061025c919061330e565b6108c7565b60405161026e919061337c565b60405180910390f35b34801561028357600080fd5b5061029e600480360381019061029991906133c3565b61094c565b005b3480156102ac57600080fd5b506102b5610a63565b6040516102c29190613412565b60405180910390f35b6102e560048036038101906102e0919061342d565b610a70565b005b3480156102f357600080fd5b5061030e6004803603810190610309919061346d565b610bec565b005b61032a6004803603810190610325919061330e565b610c4c565b005b34801561033857600080fd5b50610353600480360381019061034e91906133c3565b610db4565b6040516103609190613412565b60405180910390f35b34801561037557600080fd5b5061037e610e59565b60405161038b91906135f1565b60405180910390f35b3480156103a057600080fd5b506103bb60048036038101906103b6919061346d565b610ff3565b005b3480156103c957600080fd5b506103e460048036038101906103df9190613748565b611013565b6040516103f19190613202565b60405180910390f35b34801561040657600080fd5b50610421600480360381019061041c919061330e565b61104f565b60405161042e9190613412565b60405180910390f35b34801561044357600080fd5b5061045e6004803603810190610459919061330e565b6110c0565b60405161046b919061337c565b60405180910390f35b34801561048057600080fd5b5061049b6004803603810190610496919061330e565b611171565b6040516104a891906137e6565b60405180910390f35b3480156104bd57600080fd5b506104d860048036038101906104d39190613801565b611223565b6040516104e59190613412565b60405180910390f35b3480156104fa57600080fd5b506105036112da565b60405161051091906135f1565b60405180910390f35b34801561052557600080fd5b5061052e61143e565b005b34801561053c57600080fd5b506105576004803603810190610552919061330e565b6114c6565b005b34801561056557600080fd5b50610580600480360381019061057b919061330e565b6114d2565b005b34801561058e57600080fd5b5061059761159b565b6040516105a4919061337c565b60405180910390f35b3480156105b957600080fd5b506105c26115c5565b6040516105cf91906132b6565b60405180910390f35b3480156105e457600080fd5b506105ff60048036038101906105fa919061385a565b611657565b005b34801561060d57600080fd5b506106286004803603810190610623919061393b565b61166d565b005b610644600480360381019061063f91906139be565b6116cf565b6040516106519190613412565b60405180910390f35b34801561066657600080fd5b5061066f6117df565b60405161067c9190613412565b60405180910390f35b34801561069157600080fd5b506106ac60048036038101906106a7919061330e565b6117e5565b6040516106b991906132b6565b60405180910390f35b3480156106ce57600080fd5b506106d7611936565b6040516106e49190613412565b60405180910390f35b3480156106f957600080fd5b50610714600480360381019061070f9190613a1a565b611947565b6040516107219190613202565b60405180910390f35b34801561073657600080fd5b50610751600480360381019061074c9190613801565b6119db565b005b60007f80ac58cd000000000000000000000000000000000000000000000000000000007bffffffffffffffffffffffffffffffffffffffffffffffffffffffff1916827bffffffffffffffffffffffffffffffffffffffffffffffffffffffff1916148061081e57507f5b5e139f000000000000000000000000000000000000000000000000000000007bffffffffffffffffffffffffffffffffffffffffffffffffffffffff1916827bffffffffffffffffffffffffffffffffffffffffffffffffffffffff1916145b8061082e575061082d82611ad2565b5b9050919050565b60606000805461084490613a89565b80601f016020809104026020016040519081016040528092919081815260200182805461087090613a89565b80156108bd5780601f10610892576101008083540402835291602001916108bd565b820191906000526020600020905b8154815290600101906020018083116108a057829003601f168201915b5050505050905090565b60006108d282611b3c565b610911576040517f08c379a000000000000000000000000000000000000000000000000000000000815260040161090890613b2c565b60405180910390fd5b6004600083815260200190815260200160002060009054906101000a900473ffffffffffffffffffffffffffffffffffffffff169050919050565b6000610957826110c0565b90508073ffffffffffffffffffffffffffffffffffffffff168373ffffffffffffffffffffffffffffffffffffffff16036109c7576040517f08c379a00000000000000000000000000000000000000000000000000000000081526004016109be90613bbe565b60405180910390fd5b8073ffffffffffffffffffffffffffffffffffffffff166109e6611ba8565b73ffffffffffffffffffffffffffffffffffffffff161480610a155750610a1481610a0f611ba8565b611947565b5b610a54576040517f08c379a0000000000000000000000000000000000000000000000000000000008152600401610a4b90613c50565b60405180910390fd5b610a5e8383611bb0565b505050565b6000600b80549050905090565b3373ffffffffffffffffffffffffffffffffffffffff16610a90836110c0565b73ffffffffffffffffffffffffffffffffffffffff1614610ae6576040517f08c379a0000000000000000000000000000000000000000000000000000000008152600401610add90613cbc565b60405180910390fd5b60001515600d600084815260200190815260200160002060020160149054906101000a900460ff16151514610b50576040517f08c379a0000000000000000000000000000000000000000000000000000000008152600401610b4790613d28565b60405180910390fd5b6008543414610b94576040517f08c379a0000000000000000000000000000000000000000000000000000000008152600401610b8b90613dba565b60405180910390fd5b6001600d600084815260200190815260200160002060020160146101000a81548160ff02191690831515021790555080600d600084815260200190815260200160002060010181905550610be86009611c69565b5050565b610bfd610bf7611ba8565b82611c7f565b610c3c576040517f08c379a0000000000000000000000000000000000000000000000000000000008152600401610c3390613e4c565b60405180910390fd5b610c47838383611d5d565b505050565b6000600d60008381526020019081526020016000206001015490506000610c72836110c0565b90508073ffffffffffffffffffffffffffffffffffffffff163373ffffffffffffffffffffffffffffffffffffffff1603610ce2576040517f08c379a0000000000000000000000000000000000000000000000000000000008152600401610cd990613eb8565b60405180910390fd5b813414610d24576040517f08c379a0000000000000000000000000000000000000000000000000000000008152600401610d1b90613f24565b60405180910390fd5b6000600d600085815260200190815260200160002060020160146101000a81548160ff021916908315150217905550610d5d6009611fc3565b610d68813385611d5d565b8073ffffffffffffffffffffffffffffffffffffffff166108fc349081150290604051600060405180830381858888f19350505050158015610dae573d6000803e3d6000fd5b50505050565b6000610dbf83611223565b8210610e00576040517f08c379a0000000000000000000000000000000000000000000000000000000008152600401610df790613f90565b60405180910390fd5b600e60008473ffffffffffffffffffffffffffffffffffffffff1673ffffffffffffffffffffffffffffffffffffffff168152602001908152602001600020600083815260200190815260200160002054905092915050565b60606000610e65610a63565b9050600080610e74600961201f565b67ffffffffffffffff811115610e8d57610e8c61361d565b5b604051908082528060200260200182016040528015610ec657816020015b610eb361302b565b815260200190600190039081610eab5790505b50905060005b83811015610fe9576000610edf8261104f565b90506000600d60008381526020019081526020016000209050600115158160020160149054906101000a900460ff16151503610fd4578060405180608001604052908160008201548152602001600182015481526020016002820160009054906101000a900473ffffffffffffffffffffffffffffffffffffffff1673ffffffffffffffffffffffffffffffffffffffff1673ffffffffffffffffffffffffffffffffffffffff1681526020016002820160149054906101000a900460ff161515151581525050848681518110610fb957610fb8613fb0565b5b6020026020010181905250600185610fd1919061400e565b94505b50508080610fe190614064565b915050610ecc565b5080935050505090565b61100e8383836040518060200160405280600081525061166d565b505050565b600060011515600c8360405161102991906140e8565b908152602001604051809103902060009054906101000a900460ff161515149050919050565b6000611059610a63565b821061109a576040517f08c379a000000000000000000000000000000000000000000000000000000000815260040161109190613f90565b60405180910390fd5b600b82815481106110ae576110ad613fb0565b5b90600052602060002001549050919050565b6000806002600084815260200190815260200160002060009054906101000a900473ffffffffffffffffffffffffffffffffffffffff169050600073ffffffffffffffffffffffffffffffffffffffff168173ffffffffffffffffffffffffffffffffffffffff1603611168576040517f08c379a000000000000000000000000000000000000000000000000000000000815260040161115f90614171565b60405180910390fd5b80915050919050565b61117961302b565b600d600083815260200190815260200160002060405180608001604052908160008201548152602001600182015481526020016002820160009054906101000a900473ffffffffffffffffffffffffffffffffffffffff1673ffffffffffffffffffffffffffffffffffffffff1673ffffffffffffffffffffffffffffffffffffffff1681526020016002820160149054906101000a900460ff1615151515815250509050919050565b60008073ffffffffffffffffffffffffffffffffffffffff168273ffffffffffffffffffffffffffffffffffffffff1603611293576040517f08c379a000000000000000000000000000000000000000000000000000000000815260040161128a90614203565b60405180910390fd5b600360008373ffffffffffffffffffffffffffffffffffffffff1673ffffffffffffffffffffffffffffffffffffffff168152602001908152602001600020549050919050565b606060006112e733611223565b905060008167ffffffffffffffff8111156113055761130461361d565b5b60405190808252806020026020018201604052801561133e57816020015b61132b61302b565b8152602001906001900390816113235790505b50905060005b828110156114355760006113583383610db4565b90506000600d600083815260200190815260200160002090508060405180608001604052908160008201548152602001600182015481526020016002820160009054906101000a900473ffffffffffffffffffffffffffffffffffffffff1673ffffffffffffffffffffffffffffffffffffffff1673ffffffffffffffffffffffffffffffffffffffff1681526020016002820160149054906101000a900460ff16151515158152505084848151811061141557611414613fb0565b5b60200260200101819052505050808061142d90614064565b915050611344565b50809250505090565b611446611ba8565b73ffffffffffffffffffffffffffffffffffffffff1661146461159b565b73ffffffffffffffffffffffffffffffffffffffff16146114ba576040517f08c379a00000000000000000000000000000000000000000000000000000000081526004016114b19061426f565b60405180910390fd5b6114c4600061202d565b565b6114cf816120f3565b50565b6114da611ba8565b73ffffffffffffffffffffffffffffffffffffffff166114f861159b565b73ffffffffffffffffffffffffffffffffffffffff161461154e576040517f08c379a00000000000000000000000000000000000000000000000000000000081526004016115459061426f565b60405180910390fd5b60008111611591576040517f08c379a0000000000000000000000000000000000000000000000000000000008152600401611588906142db565b60405180910390fd5b8060088190555050565b6000600760009054906101000a900473ffffffffffffffffffffffffffffffffffffffff16905090565b6060600180546115d490613a89565b80601f016020809104026020016040519081016040528092919081815260200182805461160090613a89565b801561164d5780601f106116225761010080835404028352916020019161164d565b820191906000526020600020905b81548152906001019060200180831161163057829003601f168201915b5050505050905090565b611669611662611ba8565b8383612146565b5050565b61167e611678611ba8565b83611c7f565b6116bd576040517f08c379a00000000000000000000000000000000000000000000000000000000081526004016116b490613e4c565b60405180910390fd5b6116c9848484846122b2565b50505050565b60006116da83611013565b1561171a576040517f08c379a000000000000000000000000000000000000000000000000000000000815260040161171190614347565b60405180910390fd5b600854341461175e576040517f08c379a000000000000000000000000000000000000000000000000000000000815260040161175590613dba565b60405180910390fd5b611768600a611c69565b6117726009611c69565b600061177e600a61201f565b905061178a338261230e565b611794818561232c565b61179e81846123a0565b6001600c856040516117b091906140e8565b908152602001604051809103902060006101000a81548160ff0219169083151502179055508091505092915050565b60085481565b60606117f082611b3c565b61182f576040517f08c379a0000000000000000000000000000000000000000000000000000000008152600401611826906143d9565b60405180910390fd5b600060066000848152602001908152602001600020805461184f90613a89565b80601f016020809104026020016040519081016040528092919081815260200182805461187b90613a89565b80156118c85780601f1061189d576101008083540402835291602001916118c8565b820191906000526020600020905b8154815290600101906020018083116118ab57829003601f168201915b5050505050905060006118d96124f0565b905060008151036118ee578192505050611931565b60008251111561192357808260405160200161190b9291906143f9565b60405160208183030381529060405292505050611931565b61192c84612507565b925050505b919050565b6000611942600961201f565b905090565b6000600560008473ffffffffffffffffffffffffffffffffffffffff1673ffffffffffffffffffffffffffffffffffffffff16815260200190815260200160002060008373ffffffffffffffffffffffffffffffffffffffff1673ffffffffffffffffffffffffffffffffffffffff16815260200190815260200160002060009054906101000a900460ff16905092915050565b6119e3611ba8565b73ffffffffffffffffffffffffffffffffffffffff16611a0161159b565b73ffffffffffffffffffffffffffffffffffffffff1614611a57576040517f08c379a0000000000000000000000000000000000000000000000000000000008152600401611a4e9061426f565b60405180910390fd5b600073ffffffffffffffffffffffffffffffffffffffff168173ffffffffffffffffffffffffffffffffffffffff1603611ac6576040517f08c379a0000000000000000000000000000000000000000000000000000000008152600401611abd9061448f565b60405180910390fd5b611acf8161202d565b50565b60007f01ffc9a7000000000000000000000000000000000000000000000000000000007bffffffffffffffffffffffffffffffffffffffffffffffffffffffff1916827bffffffffffffffffffffffffffffffffffffffffffffffffffffffff1916149050919050565b60008073ffffffffffffffffffffffffffffffffffffffff166002600084815260200190815260200160002060009054906101000a900473ffffffffffffffffffffffffffffffffffffffff1673ffffffffffffffffffffffffffffffffffffffff1614159050919050565b600033905090565b816004600083815260200190815260200160002060006101000a81548173ffffffffffffffffffffffffffffffffffffffff021916908373ffffffffffffffffffffffffffffffffffffffff160217905550808273ffffffffffffffffffffffffffffffffffffffff16611c23836110c0565b73ffffffffffffffffffffffffffffffffffffffff167f8c5be1e5ebec7d5bd14f71427d1e84f3dd0314c0f7b2291e5b200ac8c7c3b92560405160405180910390a45050565b6001816000016000828254019250508190555050565b6000611c8a82611b3c565b611cc9576040517f08c379a0000000000000000000000000000000000000000000000000000000008152600401611cc090614521565b60405180910390fd5b6000611cd4836110c0565b90508073ffffffffffffffffffffffffffffffffffffffff168473ffffffffffffffffffffffffffffffffffffffff161480611d165750611d158185611947565b5b80611d5457508373ffffffffffffffffffffffffffffffffffffffff16611d3c846108c7565b73ffffffffffffffffffffffffffffffffffffffff16145b91505092915050565b8273ffffffffffffffffffffffffffffffffffffffff16611d7d826110c0565b73ffffffffffffffffffffffffffffffffffffffff1614611dd3576040517f08c379a0000000000000000000000000000000000000000000000000000000008152600401611dca906145b3565b60405180910390fd5b600073ffffffffffffffffffffffffffffffffffffffff168273ffffffffffffffffffffffffffffffffffffffff1603611e42576040517f08c379a0000000000000000000000000000000000000000000000000000000008152600401611e3990614645565b60405180910390fd5b611e4d8383836125ae565b611e58600082611bb0565b6001600360008573ffffffffffffffffffffffffffffffffffffffff1673ffffffffffffffffffffffffffffffffffffffff1681526020019081526020016000206000828254611ea89190614665565b925050819055506001600360008473ffffffffffffffffffffffffffffffffffffffff1673ffffffffffffffffffffffffffffffffffffffff1681526020019081526020016000206000828254611eff919061400e565b92505081905550816002600083815260200190815260200160002060006101000a81548173ffffffffffffffffffffffffffffffffffffffff021916908373ffffffffffffffffffffffffffffffffffffffff160217905550808273ffffffffffffffffffffffffffffffffffffffff168473ffffffffffffffffffffffffffffffffffffffff167fddf252ad1be2c89b69c2b068fc378daa952ba7f163c4a11628f55a4df523b3ef60405160405180910390a4611fbe8383836126c0565b505050565b6000816000015490506000811161200f576040517f08c379a0000000000000000000000000000000000000000000000000000000008152600401612006906146e5565b60405180910390fd5b6001810382600001819055505050565b600081600001549050919050565b6000600760009054906101000a900473ffffffffffffffffffffffffffffffffffffffff16905081600760006101000a81548173ffffffffffffffffffffffffffffffffffffffff021916908373ffffffffffffffffffffffffffffffffffffffff1602179055508173ffffffffffffffffffffffffffffffffffffffff168173ffffffffffffffffffffffffffffffffffffffff167f8be0079c531659141344cd1fd0a4f28419497f9722a3daafe3b4186f6b6457e060405160405180910390a35050565b6120fc816126c5565b600060066000838152602001908152602001600020805461211c90613a89565b90501461214357600660008281526020019081526020016000206000612142919061306b565b5b50565b8173ffffffffffffffffffffffffffffffffffffffff168373ffffffffffffffffffffffffffffffffffffffff16036121b4576040517f08c379a00000000000000000000000000000000000000000000000000000000081526004016121ab90614751565b60405180910390fd5b80600560008573ffffffffffffffffffffffffffffffffffffffff1673ffffffffffffffffffffffffffffffffffffffff16815260200190815260200160002060008473ffffffffffffffffffffffffffffffffffffffff1673ffffffffffffffffffffffffffffffffffffffff16815260200190815260200160002060006101000a81548160ff0219169083151502179055508173ffffffffffffffffffffffffffffffffffffffff168373ffffffffffffffffffffffffffffffffffffffff167f17307eab39ab6107e8899845ad3d59bd9653f200f220920489ca2b5937696c31836040516122a59190613202565b60405180910390a3505050565b6122bd848484611d5d565b6122c9848484846127e2565b612308576040517f08c379a00000000000000000000000000000000000000000000000000000000081526004016122ff906147e3565b60405180910390fd5b50505050565b612328828260405180602001604052806000815250612969565b5050565b61233582611b3c565b612374576040517f08c379a000000000000000000000000000000000000000000000000000000000815260040161236b90614875565b60405180910390fd5b8060066000848152602001908152602001600020908051906020019061239b9291906130ab565b505050565b600081116123e3576040517f08c379a00000000000000000000000000000000000000000000000000000000081526004016123da906142db565b60405180910390fd5b60405180608001604052808381526020018281526020013373ffffffffffffffffffffffffffffffffffffffff16815260200160011515815250600d6000848152602001908152602001600020600082015181600001556020820151816001015560408201518160020160006101000a81548173ffffffffffffffffffffffffffffffffffffffff021916908373ffffffffffffffffffffffffffffffffffffffff16021790555060608201518160020160146101000a81548160ff0219169083151502179055509050507f470031062672bc0246e132c723a729c4676710ec663a29e86c88678032daddea82823360016040516124e49493929190614895565b60405180910390a15050565b606060405180602001604052806000815250905090565b606061251282611b3c565b612551576040517f08c379a00000000000000000000000000000000000000000000000000000000081526004016125489061494c565b60405180910390fd5b600061255b6124f0565b9050600081511161257b57604051806020016040528060008152506125a6565b80612585846129c4565b6040516020016125969291906143f9565b6040516020818303038152906040525b915050919050565b6125b9838383612b24565b600073ffffffffffffffffffffffffffffffffffffffff168373ffffffffffffffffffffffffffffffffffffffff16036125fb576125f681612b29565b61263a565b8173ffffffffffffffffffffffffffffffffffffffff168373ffffffffffffffffffffffffffffffffffffffff1614612639576126388382612b72565b5b5b600073ffffffffffffffffffffffffffffffffffffffff168273ffffffffffffffffffffffffffffffffffffffff160361267c5761267781612cdf565b6126bb565b8273ffffffffffffffffffffffffffffffffffffffff168273ffffffffffffffffffffffffffffffffffffffff16146126ba576126b98282612db0565b5b5b505050565b505050565b60006126d0826110c0565b90506126de816000846125ae565b6126e9600083611bb0565b6001600360008373ffffffffffffffffffffffffffffffffffffffff1673ffffffffffffffffffffffffffffffffffffffff16815260200190815260200160002060008282546127399190614665565b925050819055506002600083815260200190815260200160002060006101000a81549073ffffffffffffffffffffffffffffffffffffffff021916905581600073ffffffffffffffffffffffffffffffffffffffff168273ffffffffffffffffffffffffffffffffffffffff167fddf252ad1be2c89b69c2b068fc378daa952ba7f163c4a11628f55a4df523b3ef60405160405180910390a46127de816000846126c0565b5050565b60006128038473ffffffffffffffffffffffffffffffffffffffff16612e2f565b1561295c578373ffffffffffffffffffffffffffffffffffffffff1663150b7a0261282c611ba8565b8786866040518563ffffffff1660e01b815260040161284e94939291906149c1565b6020604051808303816000875af192505050801561288a57506040513d601f19601f820116820180604052508101906128879190614a22565b60015b61290c573d80600081146128ba576040519150601f19603f3d011682016040523d82523d6000602084013e6128bf565b606091505b506000815103612904576040517f08c379a00000000000000000000000000000000000000000000000000000000081526004016128fb906147e3565b60405180910390fd5b805181602001fd5b63150b7a0260e01b7bffffffffffffffffffffffffffffffffffffffffffffffffffffffff1916817bffffffffffffffffffffffffffffffffffffffffffffffffffffffff191614915050612961565b600190505b949350505050565b6129738383612e52565b61298060008484846127e2565b6129bf576040517f08c379a00000000000000000000000000000000000000000000000000000000081526004016129b6906147e3565b60405180910390fd5b505050565b606060008203612a0b576040518060400160405280600181526020017f30000000000000000000000000000000000000000000000000000000000000008152509050612b1f565b600082905060005b60008214612a3d578080612a2690614064565b915050600a82612a369190614a7e565b9150612a13565b60008167ffffffffffffffff811115612a5957612a5861361d565b5b6040519080825280601f01601f191660200182016040528015612a8b5781602001600182028036833780820191505090505b5090505b60008514612b1857600182612aa49190614665565b9150600a85612ab39190614aaf565b6030612abf919061400e565b60f81b818381518110612ad557612ad4613fb0565b5b60200101907effffffffffffffffffffffffffffffffffffffffffffffffffffffffffffff1916908160001a905350600a85612b119190614a7e565b9450612a8f565b8093505050505b919050565b505050565b600b805490506010600083815260200190815260200160002081905550600b81908060018154018082558091505060019003906000526020600020016000909190919091505550565b60006001612b7f84611223565b612b899190614665565b90506000600f6000848152602001908152602001600020549050818114612c6e576000600e60008673ffffffffffffffffffffffffffffffffffffffff1673ffffffffffffffffffffffffffffffffffffffff168152602001908152602001600020600084815260200190815260200160002054905080600e60008773ffffffffffffffffffffffffffffffffffffffff1673ffffffffffffffffffffffffffffffffffffffff16815260200190815260200160002060008481526020019081526020016000208190555081600f600083815260200190815260200160002081905550505b600f600084815260200190815260200160002060009055600e60008573ffffffffffffffffffffffffffffffffffffffff1673ffffffffffffffffffffffffffffffffffffffff16815260200190815260200160002060008381526020019081526020016000206000905550505050565b60006001600b80549050612cf39190614665565b90506000601060008481526020019081526020016000205490506000600b8381548110612d2357612d22613fb0565b5b9060005260206000200154905080600b8381548110612d4557612d44613fb0565b5b90600052602060002001819055508160106000838152602001908152602001600020819055506010600085815260200190815260200160002060009055600b805480612d9457612d93614ae0565b5b6001900381819060005260206000200160009055905550505050565b6000612dbb83611223565b905081600e60008573ffffffffffffffffffffffffffffffffffffffff1673ffffffffffffffffffffffffffffffffffffffff16815260200190815260200160002060008381526020019081526020016000208190555080600f600084815260200190815260200160002081905550505050565b6000808273ffffffffffffffffffffffffffffffffffffffff163b119050919050565b600073ffffffffffffffffffffffffffffffffffffffff168273ffffffffffffffffffffffffffffffffffffffff1603612ec1576040517f08c379a0000000000000000000000000000000000000000000000000000000008152600401612eb890614b5b565b60405180910390fd5b612eca81611b3c565b15612f0a576040517f08c379a0000000000000000000000000000000000000000000000000000000008152600401612f0190614bc7565b60405180910390fd5b612f16600083836125ae565b6001600360008473ffffffffffffffffffffffffffffffffffffffff1673ffffffffffffffffffffffffffffffffffffffff1681526020019081526020016000206000828254612f66919061400e565b92505081905550816002600083815260200190815260200160002060006101000a81548173ffffffffffffffffffffffffffffffffffffffff021916908373ffffffffffffffffffffffffffffffffffffffff160217905550808273ffffffffffffffffffffffffffffffffffffffff16600073ffffffffffffffffffffffffffffffffffffffff167fddf252ad1be2c89b69c2b068fc378daa952ba7f163c4a11628f55a4df523b3ef60405160405180910390a4613027600083836126c0565b5050565b60405180608001604052806000815260200160008152602001600073ffffffffffffffffffffffffffffffffffffffff1681526020016000151581525090565b50805461307790613a89565b6000825580601f1061308957506130a8565b601f0160209004906000526020600020908101906130a79190613131565b5b50565b8280546130b790613a89565b90600052602060002090601f0160209004810192826130d95760008555613120565b82601f106130f257805160ff1916838001178555613120565b82800160010185558215613120579182015b8281111561311f578251825591602001919060010190613104565b5b50905061312d9190613131565b5090565b5b8082111561314a576000816000905550600101613132565b5090565b6000604051905090565b600080fd5b600080fd5b60007fffffffff0000000000000000000000000000000000000000000000000000000082169050919050565b61319781613162565b81146131a257600080fd5b50565b6000813590506131b48161318e565b92915050565b6000602082840312156131d0576131cf613158565b5b60006131de848285016131a5565b91505092915050565b60008115159050919050565b6131fc816131e7565b82525050565b600060208201905061321760008301846131f3565b92915050565b600081519050919050565b600082825260208201905092915050565b60005b8381101561325757808201518184015260208101905061323c565b83811115613266576000848401525b50505050565b6000601f19601f8301169050919050565b60006132888261321d565b6132928185613228565b93506132a2818560208601613239565b6132ab8161326c565b840191505092915050565b600060208201905081810360008301526132d0818461327d565b905092915050565b6000819050919050565b6132eb816132d8565b81146132f657600080fd5b50565b600081359050613308816132e2565b92915050565b60006020828403121561332457613323613158565b5b6000613332848285016132f9565b91505092915050565b600073ffffffffffffffffffffffffffffffffffffffff82169050919050565b60006133668261333b565b9050919050565b6133768161335b565b82525050565b6000602082019050613391600083018461336d565b92915050565b6133a08161335b565b81146133ab57600080fd5b50565b6000813590506133bd81613397565b92915050565b600080604083850312156133da576133d9613158565b5b60006133e8858286016133ae565b92505060206133f9858286016132f9565b9150509250929050565b61340c816132d8565b82525050565b60006020820190506134276000830184613403565b92915050565b6000806040838503121561344457613443613158565b5b6000613452858286016132f9565b9250506020613463858286016132f9565b9150509250929050565b60008060006060848603121561348657613485613158565b5b6000613494868287016133ae565b93505060206134a5868287016133ae565b92505060406134b6868287016132f9565b9150509250925092565b600081519050919050565b600082825260208201905092915050565b6000819050602082019050919050565b6134f5816132d8565b82525050565b6135048161335b565b82525050565b613513816131e7565b82525050565b60808201600082015161352f60008501826134ec565b50602082015161354260208501826134ec565b50604082015161355560408501826134fb565b506060820151613568606085018261350a565b50505050565b600061357a8383613519565b60808301905092915050565b6000602082019050919050565b600061359e826134c0565b6135a881856134cb565b93506135b3836134dc565b8060005b838110156135e45781516135cb888261356e565b97506135d683613586565b9250506001810190506135b7565b5085935050505092915050565b6000602082019050818103600083015261360b8184613593565b905092915050565b600080fd5b600080fd5b7f4e487b7100000000000000000000000000000000000000000000000000000000600052604160045260246000fd5b6136558261326c565b810181811067ffffffffffffffff821117156136745761367361361d565b5b80604052505050565b600061368761314e565b9050613693828261364c565b919050565b600067ffffffffffffffff8211156136b3576136b261361d565b5b6136bc8261326c565b9050602081019050919050565b82818337600083830152505050565b60006136eb6136e684613698565b61367d565b90508281526020810184848401111561370757613706613618565b5b6137128482856136c9565b509392505050565b600082601f83011261372f5761372e613613565b5b813561373f8482602086016136d8565b91505092915050565b60006020828403121561375e5761375d613158565b5b600082013567ffffffffffffffff81111561377c5761377b61315d565b5b6137888482850161371a565b91505092915050565b6080820160008201516137a760008501826134ec565b5060208201516137ba60208501826134ec565b5060408201516137cd60408501826134fb565b5060608201516137e0606085018261350a565b50505050565b60006080820190506137fb6000830184613791565b92915050565b60006020828403121561381757613816613158565b5b6000613825848285016133ae565b91505092915050565b613837816131e7565b811461384257600080fd5b50565b6000813590506138548161382e565b92915050565b6000806040838503121561387157613870613158565b5b600061387f858286016133ae565b925050602061389085828601613845565b9150509250929050565b600067ffffffffffffffff8211156138b5576138b461361d565b5b6138be8261326c565b9050602081019050919050565b60006138de6138d98461389a565b61367d565b9050828152602081018484840111156138fa576138f9613618565b5b6139058482856136c9565b509392505050565b600082601f83011261392257613921613613565b5b81356139328482602086016138cb565b91505092915050565b6000806000806080858703121561395557613954613158565b5b6000613963878288016133ae565b9450506020613974878288016133ae565b9350506040613985878288016132f9565b925050606085013567ffffffffffffffff8111156139a6576139a561315d565b5b6139b28782880161390d565b91505092959194509250565b600080604083850312156139d5576139d4613158565b5b600083013567ffffffffffffffff8111156139f3576139f261315d565b5b6139ff8582860161371a565b9250506020613a10858286016132f9565b9150509250929050565b60008060408385031215613a3157613a30613158565b5b6000613a3f858286016133ae565b9250506020613a50858286016133ae565b9150509250929050565b7f4e487b7100000000000000000000000000000000000000000000000000000000600052602260045260246000fd5b60006002820490506001821680613aa157607f821691505b602082108103613ab457613ab3613a5a565b5b50919050565b7f4552433732313a20617070726f76656420717565727920666f72206e6f6e657860008201527f697374656e7420746f6b656e0000000000000000000000000000000000000000602082015250565b6000613b16602c83613228565b9150613b2182613aba565b604082019050919050565b60006020820190508181036000830152613b4581613b09565b9050919050565b7f4552433732313a20617070726f76616c20746f2063757272656e74206f776e6560008201527f7200000000000000000000000000000000000000000000000000000000000000602082015250565b6000613ba8602183613228565b9150613bb382613b4c565b604082019050919050565b60006020820190508181036000830152613bd781613b9b565b9050919050565b7f4552433732313a20617070726f76652063616c6c6572206973206e6f74206f7760008201527f6e6572206e6f7220617070726f76656420666f7220616c6c0000000000000000602082015250565b6000613c3a603883613228565b9150613c4582613bde565b604082019050919050565b60006020820190508181036000830152613c6981613c2d565b9050919050565b7f596f7520617265206e6f74206f776e6572206f662074686973206e6674000000600082015250565b6000613ca6601d83613228565b9150613cb182613c70565b602082019050919050565b60006020820190508181036000830152613cd581613c99565b9050919050565b7f4974656d20697320616c7265616479206f6e2073616c65000000000000000000600082015250565b6000613d12601783613228565b9150613d1d82613cdc565b602082019050919050565b60006020820190508181036000830152613d4181613d05565b9050919050565b7f5072696365206d75737420626520657175616c20746f206c697374696e67207060008201527f7269636500000000000000000000000000000000000000000000000000000000602082015250565b6000613da4602483613228565b9150613daf82613d48565b604082019050919050565b60006020820190508181036000830152613dd381613d97565b9050919050565b7f4552433732313a207472616e736665722063616c6c6572206973206e6f74206f60008201527f776e6572206e6f7220617070726f766564000000000000000000000000000000602082015250565b6000613e36603183613228565b9150613e4182613dda565b604082019050919050565b60006020820190508181036000830152613e6581613e29565b9050919050565b7f596f7520616c7265616479206f776e2074686973204e46540000000000000000600082015250565b6000613ea2601883613228565b9150613ead82613e6c565b602082019050919050565b60006020820190508181036000830152613ed181613e95565b9050919050565b7f506c65617365207375626d6974207468652061736b696e672070726963650000600082015250565b6000613f0e601e83613228565b9150613f1982613ed8565b602082019050919050565b60006020820190508181036000830152613f3d81613f01565b9050919050565b7f496e646578206f7574206f6620626f756e647300000000000000000000000000600082015250565b6000613f7a601383613228565b9150613f8582613f44565b602082019050919050565b60006020820190508181036000830152613fa981613f6d565b9050919050565b7f4e487b7100000000000000000000000000000000000000000000000000000000600052603260045260246000fd5b7f4e487b7100000000000000000000000000000000000000000000000000000000600052601160045260246000fd5b6000614019826132d8565b9150614024836132d8565b9250827fffffffffffffffffffffffffffffffffffffffffffffffffffffffffffffffff0382111561405957614058613fdf565b5b828201905092915050565b600061406f826132d8565b91507fffffffffffffffffffffffffffffffffffffffffffffffffffffffffffffffff82036140a1576140a0613fdf565b5b600182019050919050565b600081905092915050565b60006140c28261321d565b6140cc81856140ac565b93506140dc818560208601613239565b80840191505092915050565b60006140f482846140b7565b915081905092915050565b7f4552433732313a206f776e657220717565727920666f72206e6f6e657869737460008201527f656e7420746f6b656e0000000000000000000000000000000000000000000000602082015250565b600061415b602983613228565b9150614166826140ff565b604082019050919050565b6000602082019050818103600083015261418a8161414e565b9050919050565b7f4552433732313a2062616c616e636520717565727920666f7220746865207a6560008201527f726f206164647265737300000000000000000000000000000000000000000000602082015250565b60006141ed602a83613228565b91506141f882614191565b604082019050919050565b6000602082019050818103600083015261421c816141e0565b9050919050565b7f4f776e61626c653a2063616c6c6572206973206e6f7420746865206f776e6572600082015250565b6000614259602083613228565b915061426482614223565b602082019050919050565b600060208201905081810360008301526142888161424c565b9050919050565b7f5072696365206d757374206265206174206c6561737420312077656900000000600082015250565b60006142c5601c83613228565b91506142d08261428f565b602082019050919050565b600060208201905081810360008301526142f4816142b8565b9050919050565b7f546f6b656e2055524920616c7265616479206578697374730000000000000000600082015250565b6000614331601883613228565b915061433c826142fb565b602082019050919050565b6000602082019050818103600083015261436081614324565b9050919050565b7f45524337323155524953746f726167653a2055524920717565727920666f722060008201527f6e6f6e6578697374656e7420746f6b656e000000000000000000000000000000602082015250565b60006143c3603183613228565b91506143ce82614367565b604082019050919050565b600060208201905081810360008301526143f2816143b6565b9050919050565b600061440582856140b7565b915061441182846140b7565b91508190509392505050565b7f4f776e61626c653a206e6577206f776e657220697320746865207a65726f206160008201527f6464726573730000000000000000000000000000000000000000000000000000602082015250565b6000614479602683613228565b91506144848261441d565b604082019050919050565b600060208201905081810360008301526144a88161446c565b9050919050565b7f4552433732313a206f70657261746f7220717565727920666f72206e6f6e657860008201527f697374656e7420746f6b656e0000000000000000000000000000000000000000602082015250565b600061450b602c83613228565b9150614516826144af565b604082019050919050565b6000602082019050818103600083015261453a816144fe565b9050919050565b7f4552433732313a207472616e736665722066726f6d20696e636f72726563742060008201527f6f776e6572000000000000000000000000000000000000000000000000000000602082015250565b600061459d602583613228565b91506145a882614541565b604082019050919050565b600060208201905081810360008301526145cc81614590565b9050919050565b7f4552433732313a207472616e7366657220746f20746865207a65726f2061646460008201527f7265737300000000000000000000000000000000000000000000000000000000602082015250565b600061462f602483613228565b915061463a826145d3565b604082019050919050565b6000602082019050818103600083015261465e81614622565b9050919050565b6000614670826132d8565b915061467b836132d8565b92508282101561468e5761468d613fdf565b5b828203905092915050565b7f436f756e7465723a2064656372656d656e74206f766572666c6f770000000000600082015250565b60006146cf601b83613228565b91506146da82614699565b602082019050919050565b600060208201905081810360008301526146fe816146c2565b9050919050565b7f4552433732313a20617070726f766520746f2063616c6c657200000000000000600082015250565b600061473b601983613228565b915061474682614705565b602082019050919050565b6000602082019050818103600083015261476a8161472e565b9050919050565b7f4552433732313a207472616e7366657220746f206e6f6e20455243373231526560008201527f63656976657220696d706c656d656e7465720000000000000000000000000000602082015250565b60006147cd603283613228565b91506147d882614771565b604082019050919050565b600060208201905081810360008301526147fc816147c0565b9050919050565b7f45524337323155524953746f726167653a2055524920736574206f66206e6f6e60008201527f6578697374656e7420746f6b656e000000000000000000000000000000000000602082015250565b600061485f602e83613228565b915061486a82614803565b604082019050919050565b6000602082019050818103600083015261488e81614852565b9050919050565b60006080820190506148aa6000830187613403565b6148b76020830186613403565b6148c4604083018561336d565b6148d160608301846131f3565b95945050505050565b7f4552433732314d657461646174613a2055524920717565727920666f72206e6f60008201527f6e6578697374656e7420746f6b656e0000000000000000000000000000000000602082015250565b6000614936602f83613228565b9150614941826148da565b604082019050919050565b6000602082019050818103600083015261496581614929565b9050919050565b600081519050919050565b600082825260208201905092915050565b60006149938261496c565b61499d8185614977565b93506149ad818560208601613239565b6149b68161326c565b840191505092915050565b60006080820190506149d6600083018761336d565b6149e3602083018661336d565b6149f06040830185613403565b8181036060830152614a028184614988565b905095945050505050565b600081519050614a1c8161318e565b92915050565b600060208284031215614a3857614a37613158565b5b6000614a4684828501614a0d565b91505092915050565b7f4e487b7100000000000000000000000000000000000000000000000000000000600052601260045260246000fd5b6000614a89826132d8565b9150614a94836132d8565b925082614aa457614aa3614a4f565b5b828204905092915050565b6000614aba826132d8565b9150614ac5836132d8565b925082614ad557614ad4614a4f565b5b828206905092915050565b7f4e487b7100000000000000000000000000000000000000000000000000000000600052603160045260246000fd5b7f4552433732313a206d696e7420746f20746865207a65726f2061646472657373600082015250565b6000614b45602083613228565b9150614b5082614b0f565b602082019050919050565b60006020820190508181036000830152614b7481614b38565b9050919050565b7f4552433732313a20746f6b656e20616c7265616479206d696e74656400000000600082015250565b6000614bb1601c83613228565b9150614bbc82614b7b565b602082019050919050565b60006020820190508181036000830152614be081614ba4565b905091905056fea264697066735822122051b15ce6d34aa60b46f5a1f0f75604c5146daf80fbbeb2ee532c9f87efd6d5d964736f6c634300080d0033",
  "immutableReferences": {},
  "source": "// SPDX-License-Identifier: MIT\r\npragma solidity >=0.4.22 <0.9.0;\r\n\r\nimport \"@openzeppelin/contracts/token/ERC721/extensions/ERC721URIStorage.sol\";\r\nimport \"@openzeppelin/contracts/utils/Counters.sol\";\r\nimport \"@openzeppelin/contracts/access/Ownable.sol\";\r\n\r\ncontract NftMarket is ERC721URIStorage, Ownable {\r\n    using Counters for Counters.Counter;\r\n\r\n    struct NftItem {\r\n        uint256 tokenId;\r\n        uint256 price;\r\n        address creator;\r\n        bool isListed;\r\n    }\r\n\r\n    uint256 public listingPrice = 0.025 ether;\r\n\r\n    Counters.Counter private _listedItems;\r\n    Counters.Counter private _tokenIds;\r\n\r\n    uint256[] private _allNfts;\r\n\r\n    mapping(string => bool) private _usedTokenURIs;\r\n    mapping(uint256 => NftItem) private _idToNftItem;\r\n\r\n    mapping(address => mapping(uint256 => uint256)) private _ownedTokens;\r\n    mapping(uint256 => uint256) private _idToOwnedIndex;\r\n\r\n    mapping(uint256 => uint256) private _idToNftIndex;\r\n\r\n    event NftItemCreated(\r\n        uint256 tokenId,\r\n        uint256 price,\r\n        address creator,\r\n        bool isListed\r\n    );\r\n\r\n    constructor() ERC721(\"DarkNovaNFT\", \"DNNFT\") {}\r\n\r\n    function setListingPrice(uint256 newPrice) external onlyOwner {\r\n        require(newPrice > 0, \"Price must be at least 1 wei\");\r\n        listingPrice = newPrice;\r\n    }\r\n\r\n    function getNftItem(uint256 tokenId) public view returns (NftItem memory) {\r\n        return _idToNftItem[tokenId];\r\n    }\r\n\r\n    function listedItemsCount() public view returns (uint256) {\r\n        return _listedItems.current();\r\n    }\r\n\r\n    function tokenURIExists(string memory tokenURI) public view returns (bool) {\r\n        return _usedTokenURIs[tokenURI] == true;\r\n    }\r\n\r\n    function totalSupply() public view returns (uint256) {\r\n        return _allNfts.length;\r\n    }\r\n\r\n    function tokenByIndex(uint256 index) public view returns (uint256) {\r\n        require(index < totalSupply(), \"Index out of bounds\");\r\n        return _allNfts[index];\r\n    }\r\n\r\n    function tokenOfOwnerByIndex(address owner, uint256 index)\r\n        public\r\n        view\r\n        returns (uint256)\r\n    {\r\n        require(index < ERC721.balanceOf(owner), \"Index out of bounds\");\r\n        return _ownedTokens[owner][index];\r\n    }\r\n\r\n    function getAllNftsOnSale() public view returns (NftItem[] memory) {\r\n        uint256 allItemsCounts = totalSupply();\r\n        uint256 currentIndex = 0;\r\n        NftItem[] memory items = new NftItem[](_listedItems.current());\r\n\r\n        for (uint256 i = 0; i < allItemsCounts; i++) {\r\n            uint256 tokenId = tokenByIndex(i);\r\n            NftItem storage item = _idToNftItem[tokenId];\r\n\r\n            if (item.isListed == true) {\r\n                items[currentIndex] = item;\r\n                currentIndex += 1;\r\n            }\r\n        }\r\n\r\n        return items;\r\n    }\r\n\r\n    function getOwnedNfts() public view returns (NftItem[] memory) {\r\n        uint256 ownedItemsCount = ERC721.balanceOf(msg.sender);\r\n        NftItem[] memory items = new NftItem[](ownedItemsCount);\r\n\r\n        for (uint256 i = 0; i < ownedItemsCount; i++) {\r\n            uint256 tokenId = tokenOfOwnerByIndex(msg.sender, i);\r\n            NftItem storage item = _idToNftItem[tokenId];\r\n            items[i] = item;\r\n        }\r\n\r\n        return items;\r\n    }\r\n\r\n    function burnToken(uint256 tokenId) public {\r\n        _burn(tokenId);\r\n    }\r\n\r\n    function mintToken(string memory tokenURI, uint256 price)\r\n        public\r\n        payable\r\n        returns (uint256)\r\n    {\r\n        require(!tokenURIExists(tokenURI), \"Token URI already exists\");\r\n        require(\r\n            msg.value == listingPrice,\r\n            \"Price must be equal to listing price\"\r\n        );\r\n\r\n        _tokenIds.increment();\r\n        _listedItems.increment();\r\n\r\n        uint256 newTokenId = _tokenIds.current();\r\n\r\n        _safeMint(msg.sender, newTokenId);\r\n        _setTokenURI(newTokenId, tokenURI);\r\n        _createNftItem(newTokenId, price);\r\n        _usedTokenURIs[tokenURI] = true;\r\n\r\n        return newTokenId;\r\n    }\r\n\r\n    function placeNftOnSale(uint256 tokenId, uint256 newPrice) public payable {\r\n        require(\r\n            ERC721.ownerOf(tokenId) == msg.sender,\r\n            \"You are not owner of this nft\"\r\n        );\r\n        require(\r\n            _idToNftItem[tokenId].isListed == false,\r\n            \"Item is already on sale\"\r\n        );\r\n        require(\r\n            msg.value == listingPrice,\r\n            \"Price must be equal to listing price\"\r\n        );\r\n\r\n        _idToNftItem[tokenId].isListed = true;\r\n        _idToNftItem[tokenId].price = newPrice;\r\n        _listedItems.increment();\r\n    }\r\n\r\n    function buyNft(uint256 tokenId) public payable {\r\n        uint256 price = _idToNftItem[tokenId].price;\r\n        address owner = ERC721.ownerOf(tokenId);\r\n\r\n        require(msg.sender != owner, \"You already own this NFT\");\r\n        require(msg.value == price, \"Please submit the asking price\");\r\n\r\n        _idToNftItem[tokenId].isListed = false;\r\n        _listedItems.decrement();\r\n\r\n        _transfer(owner, msg.sender, tokenId);\r\n        payable(owner).transfer(msg.value);\r\n    }\r\n\r\n    function _createNftItem(uint256 tokenId, uint256 price) private {\r\n        require(price > 0, \"Price must be at least 1 wei\");\r\n\r\n        _idToNftItem[tokenId] = NftItem(tokenId, price, msg.sender, true);\r\n\r\n        emit NftItemCreated(tokenId, price, msg.sender, true);\r\n    }\r\n\r\n    function _beforeTokenTransfer(\r\n        address from,\r\n        address to,\r\n        uint256 tokenId\r\n    ) internal virtual override {\r\n        super._beforeTokenTransfer(from, to, tokenId);\r\n\r\n        // minting token\r\n        if (from == address(0)) {\r\n            _addTokenToAllTokensEnumeration(tokenId);\r\n        } else if (from != to) {\r\n            _removeTokenFromOwnerEnumeration(from, tokenId);\r\n        }\r\n\r\n        if (to == address(0)) {\r\n            _removeTokenFromAllTokensEnumeration(tokenId);\r\n        } else if (to != from) {\r\n            _addTokenToOwnerEnumeration(to, tokenId);\r\n        }\r\n    }\r\n\r\n    function _addTokenToAllTokensEnumeration(uint256 tokenId) private {\r\n        _idToNftIndex[tokenId] = _allNfts.length;\r\n        _allNfts.push(tokenId);\r\n    }\r\n\r\n    function _addTokenToOwnerEnumeration(address to, uint256 tokenId) private {\r\n        uint256 length = ERC721.balanceOf(to);\r\n        _ownedTokens[to][length] = tokenId;\r\n        _idToOwnedIndex[tokenId] = length;\r\n    }\r\n\r\n    function _removeTokenFromOwnerEnumeration(address from, uint256 tokenId)\r\n        private\r\n    {\r\n        uint256 lastTokenIndex = ERC721.balanceOf(from) - 1;\r\n        uint256 tokenIndex = _idToOwnedIndex[tokenId];\r\n\r\n        if (tokenIndex != lastTokenIndex) {\r\n            uint256 lastTokenId = _ownedTokens[from][lastTokenIndex];\r\n\r\n            _ownedTokens[from][tokenIndex] = lastTokenId;\r\n            _idToOwnedIndex[lastTokenId] = tokenIndex;\r\n        }\r\n\r\n        delete _idToOwnedIndex[tokenId];\r\n        delete _ownedTokens[from][lastTokenIndex];\r\n    }\r\n\r\n    function _removeTokenFromAllTokensEnumeration(uint256 tokenId) private {\r\n        uint256 lastTokenIndex = _allNfts.length - 1;\r\n        uint256 tokenIndex = _idToNftIndex[tokenId];\r\n        uint256 lastTokenId = _allNfts[lastTokenIndex];\r\n\r\n        _allNfts[tokenIndex] = lastTokenId;\r\n        _idToNftIndex[lastTokenId] = tokenIndex;\r\n\r\n        delete _idToNftIndex[tokenId];\r\n        _allNfts.pop();\r\n    }\r\n}\r\n",
  "sourcePath": "D:\\sachin\\defi-projects\\nft-marketplace\\contracts\\NftMarket.sol",
  "compiler": {
    "name": "solc",
    "version": "0.8.13+commit.abaa5c0e.Emscripten.clang"
  },
  "schemaVersion": "3.4.7",
  "updatedAt": "2022-06-04T20:25:42.517Z",
  "networkType": "ethereum",
  "devdoc": {
    "kind": "dev",
    "methods": {
      "approve(address,uint256)": {
        "details": "See {IERC721-approve}."
      },
      "balanceOf(address)": {
        "details": "See {IERC721-balanceOf}."
      },
      "getApproved(uint256)": {
        "details": "See {IERC721-getApproved}."
      },
      "isApprovedForAll(address,address)": {
        "details": "See {IERC721-isApprovedForAll}."
      },
      "name()": {
        "details": "See {IERC721Metadata-name}."
      },
      "owner()": {
        "details": "Returns the address of the current owner."
      },
      "ownerOf(uint256)": {
        "details": "See {IERC721-ownerOf}."
      },
      "renounceOwnership()": {
        "details": "Leaves the contract without owner. It will not be possible to call `onlyOwner` functions anymore. Can only be called by the current owner. NOTE: Renouncing ownership will leave the contract without an owner, thereby removing any functionality that is only available to the owner."
      },
      "safeTransferFrom(address,address,uint256)": {
        "details": "See {IERC721-safeTransferFrom}."
      },
      "safeTransferFrom(address,address,uint256,bytes)": {
        "details": "See {IERC721-safeTransferFrom}."
      },
      "setApprovalForAll(address,bool)": {
        "details": "See {IERC721-setApprovalForAll}."
      },
      "supportsInterface(bytes4)": {
        "details": "See {IERC165-supportsInterface}."
      },
      "symbol()": {
        "details": "See {IERC721Metadata-symbol}."
      },
      "tokenURI(uint256)": {
        "details": "See {IERC721Metadata-tokenURI}."
      },
      "transferFrom(address,address,uint256)": {
        "details": "See {IERC721-transferFrom}."
      },
      "transferOwnership(address)": {
        "details": "Transfers ownership of the contract to a new account (`newOwner`). Can only be called by the current owner."
      }
    },
    "version": 1
  },
  "userdoc": {
    "kind": "user",
    "methods": {},
    "version": 1
  }
}